{
  "_format": "hh-sol-artifact-1",
  "contractName": "AnchorHandler",
  "sourceName": "contracts/handlers/AnchorHandler.sol",
  "abi": [
    {
      "inputs": [
        {
          "internalType": "address",
          "name": "bridgeAddress",
          "type": "address"
        },
        {
          "internalType": "bytes32[]",
          "name": "initialResourceIDs",
          "type": "bytes32[]"
        },
        {
          "internalType": "address[]",
          "name": "initialContractAddresses",
          "type": "address[]"
        }
      ],
      "stateMutability": "nonpayable",
      "type": "constructor"
    },
    {
      "inputs": [],
      "name": "_bridgeAddress",
      "outputs": [
        {
          "internalType": "address",
          "name": "",
          "type": "address"
        }
      ],
      "stateMutability": "view",
      "type": "function"
    },
    {
      "inputs": [
        {
          "internalType": "address",
          "name": "",
          "type": "address"
        }
      ],
      "name": "_burnList",
      "outputs": [
        {
          "internalType": "bool",
          "name": "",
          "type": "bool"
        }
      ],
      "stateMutability": "view",
      "type": "function"
    },
    {
      "inputs": [
        {
          "internalType": "address",
          "name": "",
          "type": "address"
        }
      ],
      "name": "_contractAddressToResourceID",
      "outputs": [
        {
          "internalType": "bytes32",
          "name": "",
          "type": "bytes32"
        }
      ],
      "stateMutability": "view",
      "type": "function"
    },
    {
      "inputs": [
        {
          "internalType": "address",
          "name": "",
          "type": "address"
        }
      ],
      "name": "_contractWhitelist",
      "outputs": [
        {
          "internalType": "bool",
          "name": "",
          "type": "bool"
        }
      ],
      "stateMutability": "view",
      "type": "function"
    },
    {
      "inputs": [
        {
          "internalType": "uint256",
          "name": "",
          "type": "uint256"
        }
      ],
      "name": "_counts",
      "outputs": [
        {
          "internalType": "uint64",
          "name": "",
          "type": "uint64"
        }
      ],
      "stateMutability": "view",
      "type": "function"
    },
    {
      "inputs": [
        {
          "internalType": "bytes32",
          "name": "",
          "type": "bytes32"
        }
      ],
      "name": "_resourceIDToContractAddress",
      "outputs": [
        {
          "internalType": "address",
          "name": "",
          "type": "address"
        }
      ],
      "stateMutability": "view",
      "type": "function"
    },
    {
      "inputs": [
        {
          "internalType": "uint256",
          "name": "",
          "type": "uint256"
        },
        {
          "internalType": "uint256",
          "name": "",
          "type": "uint256"
        }
      ],
      "name": "_updateRecords",
      "outputs": [
        {
          "internalType": "address",
          "name": "_tokenAddress",
          "type": "address"
        },
        {
          "internalType": "uint256",
          "name": "_sourceChainID",
          "type": "uint256"
        },
        {
          "internalType": "bytes32",
          "name": "_resourceID",
          "type": "bytes32"
        },
        {
          "internalType": "bytes32",
          "name": "_merkleRoot",
          "type": "bytes32"
        },
        {
          "internalType": "uint256",
          "name": "_blockHeight",
          "type": "uint256"
        }
      ],
      "stateMutability": "view",
      "type": "function"
    },
    {
      "inputs": [
        {
          "internalType": "bytes32",
          "name": "resourceID",
          "type": "bytes32"
        },
        {
          "internalType": "bytes",
          "name": "data",
          "type": "bytes"
        }
      ],
      "name": "executeProposal",
      "outputs": [],
      "stateMutability": "nonpayable",
      "type": "function"
    },
    {
      "inputs": [
        {
          "internalType": "uint64",
          "name": "updateNonce",
          "type": "uint64"
        },
        {
          "internalType": "uint256",
          "name": "sourceChainId",
          "type": "uint256"
        }
      ],
      "name": "getUpdateRecord",
      "outputs": [
        {
          "components": [
            {
              "internalType": "address",
              "name": "_tokenAddress",
              "type": "address"
            },
            {
              "internalType": "uint256",
              "name": "_sourceChainID",
              "type": "uint256"
            },
            {
              "internalType": "bytes32",
              "name": "_resourceID",
              "type": "bytes32"
            },
            {
              "internalType": "bytes32",
              "name": "_merkleRoot",
              "type": "bytes32"
            },
            {
              "internalType": "uint256",
              "name": "_blockHeight",
              "type": "uint256"
            }
          ],
          "internalType": "struct AnchorHandler.UpdateRecord",
          "name": "",
          "type": "tuple"
        }
      ],
      "stateMutability": "view",
      "type": "function"
    },
    {
      "inputs": [
        {
          "internalType": "bytes32",
          "name": "resourceID",
          "type": "bytes32"
        },
        {
          "internalType": "address",
          "name": "contractAddress",
          "type": "address"
        }
      ],
      "name": "setResource",
      "outputs": [],
      "stateMutability": "nonpayable",
      "type": "function"
    }
  ],
  "bytecode": "0x60806040523480156200001157600080fd5b5060405162000d3c38038062000d3c8339810160408190526200003491620001f1565b8051825114620000615760405162461bcd60e51b81526004016200005890620002ca565b60405180910390fd5b600080546001600160a01b0319166001600160a01b0385161781555b8251811015620000fe57620000e9838281518110620000ac57634e487b7160e01b600052603260045260246000fd5b6020026020010151838381518110620000d557634e487b7160e01b600052603260045260246000fd5b60200260200101516200010860201b60201c565b80620000f58162000379565b9150506200007d565b50505050620003b7565b600082815260016020818152604080842080546001600160a01b039096166001600160a01b0319909616861790559383526002815283832094909455600390935220805460ff19169091179055565b80516001600160a01b03811681146200016f57600080fd5b919050565b600082601f83011262000185578081fd5b815160206200019e620001988362000353565b62000327565b8281528181019085830183850287018401881015620001bb578586fd5b855b85811015620001e457620001d18262000157565b84529284019290840190600101620001bd565b5090979650505050505050565b60008060006060848603121562000206578283fd5b620002118462000157565b602085810151919450906001600160401b038082111562000230578485fd5b818701915087601f83011262000244578485fd5b815162000255620001988262000353565b81815284810190848601868402860187018c101562000272578889fd5b8895505b838610156200029657805183526001959095019491860191860162000276565b5060408a01519097509450505080831115620002b0578384fd5b5050620002c08682870162000174565b9150509250925092565b6020808252603c908201527f696e697469616c5265736f7572636549447320616e6420696e697469616c436f60408201527f6e7472616374416464726573736573206c656e206d69736d6174636800000000606082015260800190565b6040518181016001600160401b03811182821017156200034b576200034b620003a1565b604052919050565b60006001600160401b038211156200036f576200036f620003a1565b5060209081020190565b60006000198214156200039a57634e487b7160e01b81526011600452602481fd5b5060010190565b634e487b7160e01b600052604160045260246000fd5b61097580620003c76000396000f3fe608060405234801561001057600080fd5b506004361061009e5760003560e01c8063c54c2a1111610066578063c54c2a111461012d578063d75a068314610140578063e07384a814610160578063e248cff214610180578063ec97d3b4146101935761009e565b80630c9e9e14146100a3578063318c136e146100d05780636a70d081146100e55780637f79bea814610105578063b8fa373614610118575b600080fd5b6100b66100b136600461074a565b6101b3565b6040516100c79594939291906107e1565b60405180910390f35b6100d86101f7565b6040516100c791906107cd565b6100f86100f336600461064f565b610206565b6040516100c7919061080f565b6100f861011336600461064f565b61021b565b61012b6101263660046106a8565b610230565b005b6100d861013b366004610690565b610246565b61015361014e366004610690565b610261565b6040516100c791906108f6565b61017361016e366004610796565b61027d565b6040516100c791906108a2565b61012b61018e3660046106d3565b6102f2565b6101a66101a136600461064f565b610578565b6040516100c7919061081a565b6005602090815260009283526040808420909152908252902080546001820154600283015460038401546004909401546001600160a01b0390931693919290919085565b6000546001600160a01b031681565b60046020526000908152604090205460ff1681565b60036020526000908152604090205460ff1681565b61023861058a565b61024282826105b6565b5050565b6001602052600090815260409020546001600160a01b031681565b60066020526000908152604090205467ffffffffffffffff1681565b610285610605565b50600081815260056020908152604080832067ffffffffffffffff86168452825291829020825160a08101845281546001600160a01b0316815260018201549281019290925260028101549282019290925260038201546060820152600490910154608082015292915050565b6102fa61058a565b6000808061030a8486018661076b565b6000898152600160209081526040808320546001600160a01b031680845260039092529091205493965091945092509060ff166103625760405162461bcd60e51b81526004016103599061085a565b60405180910390fd5b604051639215631160e01b815281906001600160a01b0382169063921563119061039090889060040161081a565b60206040518083038186803b1580156103a857600080fd5b505afa1580156103bc573d6000803e3d6000fd5b505050506040513d601f19601f820116820180604052508101906103e09190610670565b1561044c576040516344347ba960e01b81526001600160a01b038216906344347ba990610415908890879089906004016108e0565b600060405180830381600087803b15801561042f57600080fd5b505af1158015610443573d6000803e3d6000fd5b505050506104af565b604051631dcf226f60e11b81526001600160a01b03821690633b9e44de9061047c908890879089906004016108e0565b600060405180830381600087803b15801561049657600080fd5b505af11580156104aa573d6000803e3d6000fd5b505050505b6000858152600660205260408120805482906104d49067ffffffffffffffff1661090b565b825467ffffffffffffffff9182166101009390930a83810292021916179091556040805160a0810182526001600160a01b03958616815260208082018a81528284019d8e526060830198895260808301998a5260009a8b5260058252838b20948b5293905297209651875494166001600160a01b03199094169390931786555050516001840155945160028301559351600382015592516004909301929092555050565b60026020526000908152604090205481565b6000546001600160a01b031633146105b45760405162461bcd60e51b815260040161035990610823565b565b600082815260016020818152604080842080546001600160a01b039096166001600160a01b0319909616861790559383526002815283832094909455600390935220805460ff19169091179055565b6040805160a08101825260008082526020820181905291810182905260608101829052608081019190915290565b80356001600160a01b038116811461064a57600080fd5b919050565b600060208284031215610660578081fd5b61066982610633565b9392505050565b600060208284031215610681578081fd5b81518015158114610669578182fd5b6000602082840312156106a1578081fd5b5035919050565b600080604083850312156106ba578081fd5b823591506106ca60208401610633565b90509250929050565b6000806000604084860312156106e7578081fd5b83359250602084013567ffffffffffffffff80821115610705578283fd5b818601915086601f830112610718578283fd5b813581811115610726578384fd5b876020828501011115610737578384fd5b6020830194508093505050509250925092565b6000806040838503121561075c578182fd5b50508035926020909101359150565b60008060006060848603121561077f578283fd5b505081359360208301359350604090920135919050565b600080604083850312156107a8578182fd5b823567ffffffffffffffff811681146107bf578283fd5b946020939093013593505050565b6001600160a01b0391909116815260200190565b6001600160a01b03959095168552602085019390935260408401919091526060830152608082015260a00190565b901515815260200190565b90815260200190565b6020808252601e908201527f73656e646572206d7573742062652062726964676520636f6e74726163740000604082015260600190565b60208082526028908201527f70726f766964656420746f6b656e41646472657373206973206e6f74207768696040820152671d195b1a5cdd195960c21b606082015260800190565b81516001600160a01b031681526020808301519082015260408083015190820152606080830151908201526080918201519181019190915260a00190565b9283526020830191909152604082015260600190565b67ffffffffffffffff91909116815260200190565b600067ffffffffffffffff8083168181141561093557634e487b7160e01b83526011600452602483fd5b600101939250505056fea2646970667358221220137406b6f910a23c0d2ee444160379bb5b5630587f9466e92622d749ef08ab4564736f6c63430008000033",
  "linkReferences": {},
  "deployedLinkReferences": {}
}