{
  "_format": "hh-sol-artifact-1",
  "contractName": "GovernedTokenWrapper",
  "sourceName": "contracts/tokens/GovernedTokenWrapper.sol",
  "abi": [
    {
      "inputs": [
        {
          "internalType": "string",
          "name": "name",
          "type": "string"
        },
        {
          "internalType": "string",
          "name": "symbol",
          "type": "string"
        },
        {
          "internalType": "address",
          "name": "_governor",
          "type": "address"
        },
        {
          "internalType": "uint256",
          "name": "_limit",
          "type": "uint256"
        }
      ],
      "stateMutability": "nonpayable",
      "type": "constructor"
    },
    {
      "anonymous": false,
      "inputs": [
        {
          "indexed": true,
          "internalType": "address",
          "name": "owner",
          "type": "address"
        },
        {
          "indexed": true,
          "internalType": "address",
          "name": "spender",
          "type": "address"
        },
        {
          "indexed": false,
          "internalType": "uint256",
          "name": "value",
          "type": "uint256"
        }
      ],
      "name": "Approval",
      "type": "event"
    },
    {
      "anonymous": false,
      "inputs": [
        {
          "indexed": false,
          "internalType": "address",
          "name": "account",
          "type": "address"
        }
      ],
      "name": "Paused",
      "type": "event"
    },
    {
      "anonymous": false,
      "inputs": [
        {
          "indexed": true,
          "internalType": "bytes32",
          "name": "role",
          "type": "bytes32"
        },
        {
          "indexed": true,
          "internalType": "bytes32",
          "name": "previousAdminRole",
          "type": "bytes32"
        },
        {
          "indexed": true,
          "internalType": "bytes32",
          "name": "newAdminRole",
          "type": "bytes32"
        }
      ],
      "name": "RoleAdminChanged",
      "type": "event"
    },
    {
      "anonymous": false,
      "inputs": [
        {
          "indexed": true,
          "internalType": "bytes32",
          "name": "role",
          "type": "bytes32"
        },
        {
          "indexed": true,
          "internalType": "address",
          "name": "account",
          "type": "address"
        },
        {
          "indexed": true,
          "internalType": "address",
          "name": "sender",
          "type": "address"
        }
      ],
      "name": "RoleGranted",
      "type": "event"
    },
    {
      "anonymous": false,
      "inputs": [
        {
          "indexed": true,
          "internalType": "bytes32",
          "name": "role",
          "type": "bytes32"
        },
        {
          "indexed": true,
          "internalType": "address",
          "name": "account",
          "type": "address"
        },
        {
          "indexed": true,
          "internalType": "address",
          "name": "sender",
          "type": "address"
        }
      ],
      "name": "RoleRevoked",
      "type": "event"
    },
    {
      "anonymous": false,
      "inputs": [
        {
          "indexed": true,
          "internalType": "address",
          "name": "from",
          "type": "address"
        },
        {
          "indexed": true,
          "internalType": "address",
          "name": "to",
          "type": "address"
        },
        {
          "indexed": false,
          "internalType": "uint256",
          "name": "value",
          "type": "uint256"
        }
      ],
      "name": "Transfer",
      "type": "event"
    },
    {
      "anonymous": false,
      "inputs": [
        {
          "indexed": false,
          "internalType": "address",
          "name": "account",
          "type": "address"
        }
      ],
      "name": "Unpaused",
      "type": "event"
    },
    {
      "inputs": [],
      "name": "DEFAULT_ADMIN_ROLE",
      "outputs": [
        {
          "internalType": "bytes32",
          "name": "",
          "type": "bytes32"
        }
      ],
      "stateMutability": "view",
      "type": "function"
    },
    {
      "inputs": [],
      "name": "MINTER_ROLE",
      "outputs": [
        {
          "internalType": "bytes32",
          "name": "",
          "type": "bytes32"
        }
      ],
      "stateMutability": "view",
      "type": "function"
    },
    {
      "inputs": [],
      "name": "PAUSER_ROLE",
      "outputs": [
        {
          "internalType": "bytes32",
          "name": "",
          "type": "bytes32"
        }
      ],
      "stateMutability": "view",
      "type": "function"
    },
    {
      "inputs": [
        {
          "internalType": "address",
          "name": "tokenAddress",
          "type": "address"
        }
      ],
      "name": "add",
      "outputs": [],
      "stateMutability": "nonpayable",
      "type": "function"
    },
    {
      "inputs": [
        {
          "internalType": "address",
          "name": "owner",
          "type": "address"
        },
        {
          "internalType": "address",
          "name": "spender",
          "type": "address"
        }
      ],
      "name": "allowance",
      "outputs": [
        {
          "internalType": "uint256",
          "name": "",
          "type": "uint256"
        }
      ],
      "stateMutability": "view",
      "type": "function"
    },
    {
      "inputs": [
        {
          "internalType": "address",
          "name": "spender",
          "type": "address"
        },
        {
          "internalType": "uint256",
          "name": "amount",
          "type": "uint256"
        }
      ],
      "name": "approve",
      "outputs": [
        {
          "internalType": "bool",
          "name": "",
          "type": "bool"
        }
      ],
      "stateMutability": "nonpayable",
      "type": "function"
    },
    {
      "inputs": [
        {
          "internalType": "address",
          "name": "account",
          "type": "address"
        }
      ],
      "name": "balanceOf",
      "outputs": [
        {
          "internalType": "uint256",
          "name": "",
          "type": "uint256"
        }
      ],
      "stateMutability": "view",
      "type": "function"
    },
    {
      "inputs": [
        {
          "internalType": "uint256",
          "name": "amount",
          "type": "uint256"
        }
      ],
      "name": "burn",
      "outputs": [],
      "stateMutability": "nonpayable",
      "type": "function"
    },
    {
      "inputs": [
        {
          "internalType": "address",
          "name": "account",
          "type": "address"
        },
        {
          "internalType": "uint256",
          "name": "amount",
          "type": "uint256"
        }
      ],
      "name": "burnFrom",
      "outputs": [],
      "stateMutability": "nonpayable",
      "type": "function"
    },
    {
      "inputs": [],
      "name": "decimals",
      "outputs": [
        {
          "internalType": "uint8",
          "name": "",
          "type": "uint8"
        }
      ],
      "stateMutability": "view",
      "type": "function"
    },
    {
      "inputs": [
        {
          "internalType": "address",
          "name": "spender",
          "type": "address"
        },
        {
          "internalType": "uint256",
          "name": "subtractedValue",
          "type": "uint256"
        }
      ],
      "name": "decreaseAllowance",
      "outputs": [
        {
          "internalType": "bool",
          "name": "",
          "type": "bool"
        }
      ],
      "stateMutability": "nonpayable",
      "type": "function"
    },
    {
      "inputs": [
        {
          "internalType": "bytes32",
          "name": "role",
          "type": "bytes32"
        }
      ],
      "name": "getRoleAdmin",
      "outputs": [
        {
          "internalType": "bytes32",
          "name": "",
          "type": "bytes32"
        }
      ],
      "stateMutability": "view",
      "type": "function"
    },
    {
      "inputs": [
        {
          "internalType": "bytes32",
          "name": "role",
          "type": "bytes32"
        },
        {
          "internalType": "uint256",
          "name": "index",
          "type": "uint256"
        }
      ],
      "name": "getRoleMember",
      "outputs": [
        {
          "internalType": "address",
          "name": "",
          "type": "address"
        }
      ],
      "stateMutability": "view",
      "type": "function"
    },
    {
      "inputs": [
        {
          "internalType": "bytes32",
          "name": "role",
          "type": "bytes32"
        }
      ],
      "name": "getRoleMemberCount",
      "outputs": [
        {
          "internalType": "uint256",
          "name": "",
          "type": "uint256"
        }
      ],
      "stateMutability": "view",
      "type": "function"
    },
    {
      "inputs": [],
      "name": "getTokens",
      "outputs": [
        {
          "internalType": "address[]",
          "name": "",
          "type": "address[]"
        }
      ],
      "stateMutability": "view",
      "type": "function"
    },
    {
      "inputs": [],
      "name": "governor",
      "outputs": [
        {
          "internalType": "address",
          "name": "",
          "type": "address"
        }
      ],
      "stateMutability": "view",
      "type": "function"
    },
    {
      "inputs": [
        {
          "internalType": "bytes32",
          "name": "role",
          "type": "bytes32"
        },
        {
          "internalType": "address",
          "name": "account",
          "type": "address"
        }
      ],
      "name": "grantRole",
      "outputs": [],
      "stateMutability": "nonpayable",
      "type": "function"
    },
    {
      "inputs": [
        {
          "internalType": "bytes32",
          "name": "role",
          "type": "bytes32"
        },
        {
          "internalType": "address",
          "name": "account",
          "type": "address"
        }
      ],
      "name": "hasRole",
      "outputs": [
        {
          "internalType": "bool",
          "name": "",
          "type": "bool"
        }
      ],
      "stateMutability": "view",
      "type": "function"
    },
    {
      "inputs": [
        {
          "internalType": "address",
          "name": "spender",
          "type": "address"
        },
        {
          "internalType": "uint256",
          "name": "addedValue",
          "type": "uint256"
        }
      ],
      "name": "increaseAllowance",
      "outputs": [
        {
          "internalType": "bool",
          "name": "",
          "type": "bool"
        }
      ],
      "stateMutability": "nonpayable",
      "type": "function"
    },
    {
      "inputs": [
        {
          "internalType": "address",
          "name": "to",
          "type": "address"
        },
        {
          "internalType": "uint256",
          "name": "amount",
          "type": "uint256"
        }
      ],
      "name": "mint",
      "outputs": [],
      "stateMutability": "nonpayable",
      "type": "function"
    },
    {
      "inputs": [],
      "name": "name",
      "outputs": [
        {
          "internalType": "string",
          "name": "",
          "type": "string"
        }
      ],
      "stateMutability": "view",
      "type": "function"
    },
    {
      "inputs": [],
      "name": "pause",
      "outputs": [],
      "stateMutability": "nonpayable",
      "type": "function"
    },
    {
      "inputs": [],
      "name": "paused",
      "outputs": [
        {
          "internalType": "bool",
          "name": "",
          "type": "bool"
        }
      ],
      "stateMutability": "view",
      "type": "function"
    },
    {
      "inputs": [
        {
          "internalType": "bytes32",
          "name": "role",
          "type": "bytes32"
        },
        {
          "internalType": "address",
          "name": "account",
          "type": "address"
        }
      ],
      "name": "renounceRole",
      "outputs": [],
      "stateMutability": "nonpayable",
      "type": "function"
    },
    {
      "inputs": [
        {
          "internalType": "bytes32",
          "name": "role",
          "type": "bytes32"
        },
        {
          "internalType": "address",
          "name": "account",
          "type": "address"
        }
      ],
      "name": "revokeRole",
      "outputs": [],
      "stateMutability": "nonpayable",
      "type": "function"
    },
    {
      "inputs": [
        {
          "internalType": "address",
          "name": "_governor",
          "type": "address"
        }
      ],
      "name": "setGovernor",
      "outputs": [],
      "stateMutability": "nonpayable",
      "type": "function"
    },
    {
      "inputs": [
        {
          "internalType": "bytes4",
          "name": "interfaceId",
          "type": "bytes4"
        }
      ],
      "name": "supportsInterface",
      "outputs": [
        {
          "internalType": "bool",
          "name": "",
          "type": "bool"
        }
      ],
      "stateMutability": "view",
      "type": "function"
    },
    {
      "inputs": [],
      "name": "symbol",
      "outputs": [
        {
          "internalType": "string",
          "name": "",
          "type": "string"
        }
      ],
      "stateMutability": "view",
      "type": "function"
    },
    {
      "inputs": [
        {
          "internalType": "uint256",
          "name": "",
          "type": "uint256"
        }
      ],
      "name": "tokens",
      "outputs": [
        {
          "internalType": "address",
          "name": "",
          "type": "address"
        }
      ],
      "stateMutability": "view",
      "type": "function"
    },
    {
      "inputs": [],
      "name": "totalSupply",
      "outputs": [
        {
          "internalType": "uint256",
          "name": "",
          "type": "uint256"
        }
      ],
      "stateMutability": "view",
      "type": "function"
    },
    {
      "inputs": [
        {
          "internalType": "address",
          "name": "recipient",
          "type": "address"
        },
        {
          "internalType": "uint256",
          "name": "amount",
          "type": "uint256"
        }
      ],
      "name": "transfer",
      "outputs": [
        {
          "internalType": "bool",
          "name": "",
          "type": "bool"
        }
      ],
      "stateMutability": "nonpayable",
      "type": "function"
    },
    {
      "inputs": [
        {
          "internalType": "address",
          "name": "sender",
          "type": "address"
        },
        {
          "internalType": "address",
          "name": "recipient",
          "type": "address"
        },
        {
          "internalType": "uint256",
          "name": "amount",
          "type": "uint256"
        }
      ],
      "name": "transferFrom",
      "outputs": [
        {
          "internalType": "bool",
          "name": "",
          "type": "bool"
        }
      ],
      "stateMutability": "nonpayable",
      "type": "function"
    },
    {
      "inputs": [],
      "name": "unpause",
      "outputs": [],
      "stateMutability": "nonpayable",
      "type": "function"
    },
    {
      "inputs": [
        {
          "internalType": "address",
          "name": "tokenAddress",
          "type": "address"
        },
        {
          "internalType": "uint256",
          "name": "amount",
          "type": "uint256"
        }
      ],
      "name": "unwrap",
      "outputs": [],
      "stateMutability": "nonpayable",
      "type": "function"
    },
    {
      "inputs": [
        {
          "internalType": "address",
          "name": "sender",
          "type": "address"
        },
        {
          "internalType": "address",
          "name": "tokenAddress",
          "type": "address"
        },
        {
          "internalType": "uint256",
          "name": "amount",
          "type": "uint256"
        }
      ],
      "name": "unwrapFor",
      "outputs": [],
      "stateMutability": "nonpayable",
      "type": "function"
    },
    {
      "inputs": [
        {
          "internalType": "uint256",
          "name": "limit",
          "type": "uint256"
        }
      ],
      "name": "updateLimit",
      "outputs": [],
      "stateMutability": "nonpayable",
      "type": "function"
    },
    {
      "inputs": [
        {
          "internalType": "address",
          "name": "tokenAddress",
          "type": "address"
        },
        {
          "internalType": "uint256",
          "name": "amount",
          "type": "uint256"
        }
      ],
      "name": "wrap",
      "outputs": [],
      "stateMutability": "nonpayable",
      "type": "function"
    },
    {
      "inputs": [
        {
          "internalType": "address",
          "name": "sender",
          "type": "address"
        },
        {
          "internalType": "address",
          "name": "tokenAddress",
          "type": "address"
        },
        {
          "internalType": "uint256",
          "name": "amount",
          "type": "uint256"
        }
      ],
      "name": "wrapFor",
      "outputs": [],
      "stateMutability": "nonpayable",
      "type": "function"
    },
    {
      "inputs": [],
      "name": "wrappingLimit",
      "outputs": [
        {
          "internalType": "uint256",
          "name": "",
          "type": "uint256"
        }
      ],
      "stateMutability": "view",
      "type": "function"
    }
  ],
  "bytecode": "0x60806040523480156200001157600080fd5b5060405162002a2338038062002a23833981016040819052620000349162000402565b838381818181816005908051906020019062000052929190620002b1565b50805162000068906006906020840190620002b1565b50506007805460ff19169055506200008b60006200008562000120565b62000124565b620000ba7f9f2df0fed2c77648de5860a4cc508cd0818c85b8b8a1ab4ceeef8d981c8956a66200008562000120565b620000e97f65d7a28e3265b37a6474929f336521b332c1681b933f6cb9f3376673440d862a6200008562000120565b5050600780546001600160a01b0390951661010002610100600160a81b03199095169490941790935550600a5550620004e4915050565b3390565b6200013b82826200016760201b62000fd41760201c565b60008281526001602090815260409091206200016291839062000fde62000177821b17901c565b505050565b62000173828262000197565b5050565b60006200018e836001600160a01b03841662000221565b90505b92915050565b620001a3828262000270565b62000173576000828152602081815260408083206001600160a01b03851684529091529020805460ff19166001179055620001dd62000120565b6001600160a01b0316816001600160a01b0316837f2f8788117e7eff1d82e926ec794901d17c78024a50270940304540a733656f0d60405160405180910390a45050565b60006200022f838362000299565b620002675750815460018181018455600084815260208082209093018490558454848252828601909352604090209190915562000191565b50600062000191565b6000918252602082815260408084206001600160a01b0393909316845291905290205460ff1690565b60009081526001919091016020526040902054151590565b828054620002bf9062000491565b90600052602060002090601f016020900481019282620002e357600085556200032e565b82601f10620002fe57805160ff19168380011785556200032e565b828001600101855582156200032e579182015b828111156200032e57825182559160200191906001019062000311565b506200033c92915062000340565b5090565b5b808211156200033c576000815560010162000341565b600082601f83011262000368578081fd5b81516001600160401b0380821115620003855762000385620004ce565b6040516020601f8401601f1916820181018381118382101715620003ad57620003ad620004ce565b6040528382528584018101871015620003c4578485fd5b8492505b83831015620003e75785830181015182840182015291820191620003c8565b83831115620003f857848185840101525b5095945050505050565b6000806000806080858703121562000418578384fd5b84516001600160401b03808211156200042f578586fd5b6200043d8883890162000357565b9550602087015191508082111562000453578485fd5b50620004628782880162000357565b604087015190945090506001600160a01b038116811462000481578283fd5b6060959095015193969295505050565b600281046001821680620004a657607f821691505b60208210811415620004c857634e487b7160e01b600052602260045260246000fd5b50919050565b634e487b7160e01b600052604160045260246000fd5b61252f80620004f46000396000f3fe608060405234801561001057600080fd5b506004361061023d5760003560e01c80634f64b2be1161013b578063a9059cbb116100b8578063d53913931161007c578063d5391393146104a8578063d547741f146104b0578063dd62ed3e146104c3578063e63ab1e9146104d6578063fae0959a146104de5761023d565b8063a9059cbb14610447578063aa6ca8081461045a578063bf376c7a1461046f578063c42cf53514610482578063ca15c873146104955761023d565b80639010d07c116100ff5780639010d07c146103fe57806391d148541461041157806395d89b4114610424578063a217fddf1461042c578063a457c2d7146104345761023d565b80634f64b2be146103b55780635c975abb146103c857806370a08231146103d057806379cc6790146103e35780638456cb59146103f65761023d565b8063261c80b6116101c9578063395093511161018d578063395093511461036157806339f47693146103745780633f4ba83a1461038757806340c10f191461038f57806342966c68146103a25761023d565b8063261c80b6146103005780632ca69388146103135780632f2ff15d14610326578063313ce5671461033957806336568abe1461034e5761023d565b80630c340a24116102105780630c340a24146102a857806318160ddd146102bd5780631f914382146102d257806323b872dd146102da578063248a9ca3146102ed5761023d565b806301ffc9a71461024257806306fdde031461026b578063095ea7b3146102805780630a3b0a4f14610293575b600080fd5b610255610250366004611c3c565b6104f1565b6040516102629190611d8f565b60405180910390f35b61027361051e565b6040516102629190611da3565b61025561028e366004611b98565b6105b0565b6102a66102a1366004611b11565b6105ce565b005b6102b06106a6565b6040516102629190611cf1565b6102c56106ba565b6040516102629190611d9a565b6102c56106c0565b6102556102e8366004611b5d565b6106c6565b6102c56102fb366004611be1565b610756565b6102a661030e366004611b5d565b61076b565b6102a6610321366004611b5d565b610879565b6102a6610334366004611bf9565b610989565b6103416109ab565b60405161026291906123c9565b6102a661035c366004611bf9565b6109b0565b61025561036f366004611b98565b6109d2565b6102a6610382366004611b98565b610a26565b6102a6610b08565b6102a661039d366004611b98565b610b5a565b6102a66103b0366004611be1565b610b9e565b6102b06103c3366004611be1565b610bac565b610255610bd6565b6102c56103de366004611b11565b610bdf565b6102a66103f1366004611b98565b610bfa565b6102a6610c48565b6102b061040c366004611c1b565b610c98565b61025561041f366004611bf9565b610cb7565b610273610ce0565b6102c5610cef565b610255610442366004611b98565b610cf4565b610255610455366004611b98565b610d6d565b610462610d81565b6040516102629190611d42565b6102a661047d366004611b98565b610de2565b6102a6610490366004611b11565b610ec7565b6102c56104a3366004611be1565b610f1e565b6102c5610f35565b6102a66104be366004611bf9565b610f47565b6102c56104d1366004611b2b565b610f51565b6102c5610f7c565b6102a66104ec366004611be1565b610fa0565b60006001600160e01b03198216635a05180f60e01b1480610516575061051682610ff3565b90505b919050565b60606005805461052d90612468565b80601f016020809104026020016040519081016040528092919081815260200182805461055990612468565b80156105a65780601f1061057b576101008083540402835291602001916105a6565b820191906000526020600020905b81548152906001019060200180831161058957829003601f168201915b5050505050905090565b60006105c46105bd611018565b848461101c565b5060015b92915050565b60075461010090046001600160a01b031633146106065760405162461bcd60e51b81526004016105fd90612176565b60405180910390fd5b6001600160a01b03811660009081526009602052604090205460ff161561063f5760405162461bcd60e51b81526004016105fd90611fbf565b6008805460018181019092557ff3f7a9fe364faab93b216da50a3214154f22a0a2b415b23a84c8169e8b636ee30180546001600160a01b039093166001600160a01b031990931683179055600091825260096020526040909120805460ff19169091179055565b60075461010090046001600160a01b031681565b60045490565b600a5481565b60006106d38484846110d0565b6001600160a01b0384166000908152600360205260408120816106f4611018565b6001600160a01b03166001600160a01b03168152602001908152602001600020549050828110156107375760405162461bcd60e51b81526004016105fd90612020565b61074b85610743611018565b85840361101c565b506001949350505050565b60009081526020819052604090206001015490565b6107836000805160206124da83398151915233610cb7565b61079f5760405162461bcd60e51b81526004016105fd90612278565b6107a8826111f4565b6107c45760405162461bcd60e51b81526004016105fd906121fe565b6107cd81611212565b6107e95760405162461bcd60e51b81526004016105fd90611f91565b6107f3838261129a565b60405163a9059cbb60e01b81526001600160a01b0383169063a9059cbb906108219086908590600401611d29565b602060405180830381600087803b15801561083b57600080fd5b505af115801561084f573d6000803e3d6000fd5b505050506040513d601f19601f820116820180604052508101906108739190611bc1565b50505050565b6108916000805160206124da83398151915233610cb7565b6108ad5760405162461bcd60e51b81526004016105fd90612278565b6108b6826111f4565b6108d25760405162461bcd60e51b81526004016105fd906121fe565b6108db81611212565b6108f75760405162461bcd60e51b81526004016105fd90611f91565b6040516323b872dd60e01b81526001600160a01b038316906323b872dd9061092790869030908690600401611d05565b602060405180830381600087803b15801561094157600080fd5b505af1158015610955573d6000803e3d6000fd5b505050506040513d601f19601f820116820180604052508101906109799190611bc1565b506109848382610b5a565b505050565b610993828261138b565b60008281526001602052604090206109849082610fde565b601290565b6109ba82826113af565b600082815260016020526040902061098490826113f1565b60006105c46109df611018565b8484600360006109ed611018565b6001600160a01b03908116825260208083019390935260409182016000908120918b1681529252902054610a2191906123d7565b61101c565b610a2f826111f4565b610a4b5760405162461bcd60e51b81526004016105fd906121fe565b610a5481611212565b610a705760405162461bcd60e51b81526004016105fd90611f91565b610a81610a7b611018565b8261129a565b816001600160a01b031663a9059cbb610a98611018565b836040518363ffffffff1660e01b8152600401610ab6929190611d29565b602060405180830381600087803b158015610ad057600080fd5b505af1158015610ae4573d6000803e3d6000fd5b505050506040513d601f19601f820116820180604052508101906109849190611bc1565b610b347f65d7a28e3265b37a6474929f336521b332c1681b933f6cb9f3376673440d862a61041f611018565b610b505760405162461bcd60e51b81526004016105fd90611ebe565b610b58611406565b565b610b746000805160206124da83398151915261041f611018565b610b905760405162461bcd60e51b81526004016105fd90612068565b610b9a8282611474565b5050565b610ba9610a7b611018565b50565b60088181548110610bbc57600080fd5b6000918252602090912001546001600160a01b0316905081565b60075460ff1690565b6001600160a01b031660009081526002602052604090205490565b6000610c08836104d1611018565b905081811015610c2a5760405162461bcd60e51b81526004016105fd906120ac565b610c3e83610c36611018565b84840361101c565b610984838361129a565b610c747f65d7a28e3265b37a6474929f336521b332c1681b933f6cb9f3376673440d862a61041f611018565b610c905760405162461bcd60e51b81526004016105fd9061222d565b610b5861153c565b6000828152600160205260408120610cb09083611597565b9392505050565b6000918252602082815260408084206001600160a01b0393909316845291905290205460ff1690565b60606006805461052d90612468565b600081565b60008060036000610d03611018565b6001600160a01b0390811682526020808301939093526040918201600090812091881681529252902054905082811015610d4f5760405162461bcd60e51b81526004016105fd906122b4565b610d63610d5a611018565b8585840361101c565b5060019392505050565b60006105c4610d7a611018565b84846110d0565b606060088054806020026020016040519081016040528092919081815260200182805480156105a657602002820191906000526020600020905b81546001600160a01b03168152600190910190602001808311610dbb575050505050905090565b610deb826111f4565b610e075760405162461bcd60e51b81526004016105fd906121fe565b610e1081611212565b610e2c5760405162461bcd60e51b81526004016105fd90611f91565b816001600160a01b03166323b872dd610e43611018565b30846040518463ffffffff1660e01b8152600401610e6393929190611d05565b602060405180830381600087803b158015610e7d57600080fd5b505af1158015610e91573d6000803e3d6000fd5b505050506040513d601f19601f82011682018060405250810190610eb59190611bc1565b50610b9a610ec1611018565b82611474565b60075461010090046001600160a01b03163314610ef65760405162461bcd60e51b81526004016105fd90612176565b600780546001600160a01b0390921661010002610100600160a81b0319909216919091179055565b6000818152600160205260408120610516906115a3565b6000805160206124da83398151915281565b6109ba82826115ae565b6001600160a01b03918216600090815260036020908152604080832093909416825291909152205490565b7f65d7a28e3265b37a6474929f336521b332c1681b933f6cb9f3376673440d862a81565b60075461010090046001600160a01b03163314610fcf5760405162461bcd60e51b81526004016105fd90612176565b600a55565b610b9a82826115cd565b6000610cb0836001600160a01b038416611652565b60006001600160e01b03198216637965db0b60e01b148061051657506105168261169c565b3390565b6001600160a01b0383166110425760405162461bcd60e51b81526004016105fd906121ba565b6001600160a01b0382166110685760405162461bcd60e51b81526004016105fd90611f09565b6001600160a01b0380841660008181526003602090815260408083209487168084529490915290819020849055517f8c5be1e5ebec7d5bd14f71427d1e84f3dd0314c0f7b2291e5b200ac8c7c3b925906110c3908590611d9a565b60405180910390a3505050565b6001600160a01b0383166110f65760405162461bcd60e51b81526004016105fd90612131565b6001600160a01b03821661111c5760405162461bcd60e51b81526004016105fd90611e0b565b6111278383836116b5565b6001600160a01b038316600090815260026020526040902054818110156111605760405162461bcd60e51b81526004016105fd90611f4b565b6001600160a01b038085166000908152600260205260408082208585039055918516815290812080548492906111979084906123d7565b92505081905550826001600160a01b0316846001600160a01b03167fddf252ad1be2c89b69c2b068fc378daa952ba7f163c4a11628f55a4df523b3ef846040516111e19190611d9a565b60405180910390a3610873848484610984565b6001600160a01b031660009081526009602052604090205460ff1690565b6000600a54306001600160a01b03166318160ddd6040518163ffffffff1660e01b815260040160206040518083038186803b15801561125057600080fd5b505afa158015611264573d6000803e3d6000fd5b505050506040513d601f19601f820116820180604052508101906112889190611c64565b61129290846123d7565b111592915050565b6001600160a01b0382166112c05760405162461bcd60e51b81526004016105fd906120f0565b6112cc826000836116b5565b6001600160a01b038216600090815260026020526040902054818110156113055760405162461bcd60e51b81526004016105fd90611e7c565b6001600160a01b038316600090815260026020526040812083830390556004805484929061133490849061240e565b90915550506040516000906001600160a01b038516907fddf252ad1be2c89b69c2b068fc378daa952ba7f163c4a11628f55a4df523b3ef90611377908690611d9a565b60405180910390a361098483600084610984565b61139482610756565b6113a5816113a0611018565b6116c0565b61098483836115cd565b6113b7611018565b6001600160a01b0316816001600160a01b0316146113e75760405162461bcd60e51b81526004016105fd906122f9565b610b9a8282611724565b6000610cb0836001600160a01b0384166117a7565b61140e610bd6565b61142a5760405162461bcd60e51b81526004016105fd90611e4e565b6007805460ff191690557f5db9ee0a495bf2e6ff9c91a7834c1ba4fdd244a5e8aa4e537bd38aeae4b073aa61145d611018565b60405161146a9190611cf1565b60405180910390a1565b6001600160a01b03821661149a5760405162461bcd60e51b81526004016105fd90612348565b6114a6600083836116b5565b80600460008282546114b891906123d7565b90915550506001600160a01b038216600090815260026020526040812080548392906114e59084906123d7565b90915550506040516001600160a01b038316906000907fddf252ad1be2c89b69c2b068fc378daa952ba7f163c4a11628f55a4df523b3ef90611528908590611d9a565b60405180910390a3610b9a60008383610984565b611544610bd6565b156115615760405162461bcd60e51b81526004016105fd90611ff6565b6007805460ff191660011790557f62e78cea01bee320cd4e420270b5ea74000d11b0c9f74754ebdbfc544b05a25861145d611018565b6000610cb083836118c4565b6000610516826118fc565b6115b782610756565b6115c3816113a0611018565b6109848383611724565b6115d78282610cb7565b610b9a576000828152602081815260408083206001600160a01b03851684529091529020805460ff1916600117905561160e611018565b6001600160a01b0316816001600160a01b0316837f2f8788117e7eff1d82e926ec794901d17c78024a50270940304540a733656f0d60405160405180910390a45050565b600061165e8383611900565b611694575081546001818101845560008481526020808220909301849055845484825282860190935260409020919091556105c8565b5060006105c8565b6001600160e01b031981166301ffc9a760e01b14919050565b610984838383611918565b6116ca8282610cb7565b610b9a576116e2816001600160a01b03166014611948565b6116ed836020611948565b6040516020016116fe929190611c7c565b60408051601f198184030181529082905262461bcd60e51b82526105fd91600401611da3565b61172e8282610cb7565b15610b9a576000828152602081815260408083206001600160a01b03851684529091529020805460ff19169055611763611018565b6001600160a01b0316816001600160a01b0316837ff6391f5c32d9c69d2a47ea670b442974b53935d1edc7fd64eb21e047a839171b60405160405180910390a45050565b600081815260018301602052604081205480156118ba5760006117cb60018361240e565b85549091506000906117df9060019061240e565b905081811461186057600086600001828154811061180d57634e487b7160e01b600052603260045260246000fd5b906000526020600020015490508087600001848154811061183e57634e487b7160e01b600052603260045260246000fd5b6000918252602080832090910192909255918252600188019052604090208390555b855486908061187f57634e487b7160e01b600052603160045260246000fd5b6001900381819060005260206000200160009055905585600101600086815260200190815260200160002060009055600193505050506105c8565b60009150506105c8565b60008260000182815481106118e957634e487b7160e01b600052603260045260246000fd5b9060005260206000200154905092915050565b5490565b60009081526001919091016020526040902054151590565b611923838383610984565b61192b610bd6565b156109845760405162461bcd60e51b81526004016105fd9061237f565b606060006119578360026123ef565b6119629060026123d7565b67ffffffffffffffff81111561198857634e487b7160e01b600052604160045260246000fd5b6040519080825280601f01601f1916602001820160405280156119b2576020820181803683370190505b509050600360fc1b816000815181106119db57634e487b7160e01b600052603260045260246000fd5b60200101906001600160f81b031916908160001a905350600f60fb1b81600181518110611a1857634e487b7160e01b600052603260045260246000fd5b60200101906001600160f81b031916908160001a9053506000611a3c8460026123ef565b611a479060016123d7565b90505b6001811115611adb576f181899199a1a9b1b9c1cb0b131b232b360811b85600f1660108110611a8957634e487b7160e01b600052603260045260246000fd5b1a60f81b828281518110611aad57634e487b7160e01b600052603260045260246000fd5b60200101906001600160f81b031916908160001a90535060049490941c93611ad481612451565b9050611a4a565b508315610cb05760405162461bcd60e51b81526004016105fd90611dd6565b80356001600160a01b038116811461051957600080fd5b600060208284031215611b22578081fd5b610cb082611afa565b60008060408385031215611b3d578081fd5b611b4683611afa565b9150611b5460208401611afa565b90509250929050565b600080600060608486031215611b71578081fd5b611b7a84611afa565b9250611b8860208501611afa565b9150604084013590509250925092565b60008060408385031215611baa578182fd5b611bb383611afa565b946020939093013593505050565b600060208284031215611bd2578081fd5b81518015158114610cb0578182fd5b600060208284031215611bf2578081fd5b5035919050565b60008060408385031215611c0b578182fd5b82359150611b5460208401611afa565b60008060408385031215611c2d578182fd5b50508035926020909101359150565b600060208284031215611c4d578081fd5b81356001600160e01b031981168114610cb0578182fd5b600060208284031215611c75578081fd5b5051919050565b60007f416363657373436f6e74726f6c3a206163636f756e742000000000000000000082528351611cb4816017850160208801612425565b7001034b99036b4b9b9b4b733903937b6329607d1b6017918401918201528351611ce5816028840160208801612425565b01602801949350505050565b6001600160a01b0391909116815260200190565b6001600160a01b039384168152919092166020820152604081019190915260600190565b6001600160a01b03929092168252602082015260400190565b6020808252825182820181905260009190848201906040850190845b81811015611d835783516001600160a01b031683529284019291840191600101611d5e565b50909695505050505050565b901515815260200190565b90815260200190565b6000602082528251806020840152611dc2816040850160208701612425565b601f01601f19169190910160400192915050565b6020808252818101527f537472696e67733a20686578206c656e67746820696e73756666696369656e74604082015260600190565b60208082526023908201527f45524332303a207472616e7366657220746f20746865207a65726f206164647260408201526265737360e81b606082015260800190565b60208082526014908201527314185d5cd8589b194e881b9bdd081c185d5cd95960621b604082015260600190565b60208082526022908201527f45524332303a206275726e20616d6f756e7420657863656564732062616c616e604082015261636560f01b606082015260800190565b60208082526039908201526000805160206124ba83398151915260408201527f76652070617573657220726f6c6520746f20756e706175736500000000000000606082015260800190565b60208082526022908201527f45524332303a20617070726f766520746f20746865207a65726f206164647265604082015261737360f01b606082015260800190565b60208082526026908201527f45524332303a207472616e7366657220616d6f756e7420657863656564732062604082015265616c616e636560d01b606082015260800190565b602080825260149082015273125b9d985b1a59081d1bdad95b88185b5bdd5b9d60621b604082015260600190565b60208082526019908201527f546f6b656e2073686f756c64206e6f742062652076616c696400000000000000604082015260600190565b60208082526010908201526f14185d5cd8589b194e881c185d5cd95960821b604082015260600190565b60208082526028908201527f45524332303a207472616e7366657220616d6f756e74206578636565647320616040820152676c6c6f77616e636560c01b606082015260800190565b60208082526036908201526000805160206124ba8339815191526040820152751d99481b5a5b9d195c881c9bdb19481d1bc81b5a5b9d60521b606082015260800190565b60208082526024908201527f45524332303a206275726e20616d6f756e74206578636565647320616c6c6f77604082015263616e636560e01b606082015260800190565b60208082526021908201527f45524332303a206275726e2066726f6d20746865207a65726f206164647265736040820152607360f81b606082015260800190565b60208082526025908201527f45524332303a207472616e736665722066726f6d20746865207a65726f206164604082015264647265737360d81b606082015260800190565b60208082526024908201527f4f6e6c7920676f7665726e6f722063616e2063616c6c20746869732066756e636040820152633a34b7b760e11b606082015260800190565b60208082526024908201527f45524332303a20617070726f76652066726f6d20746865207a65726f206164646040820152637265737360e01b606082015260800190565b602080825260159082015274496e76616c696420746f6b656e206164647265737360581b604082015260600190565b60208082526037908201526000805160206124ba83398151915260408201527f76652070617573657220726f6c6520746f207061757365000000000000000000606082015260800190565b6020808252602e908201526000805160206124ba83398151915260408201526d7665206d696e74657220726f6c6560901b606082015260800190565b60208082526025908201527f45524332303a2064656372656173656420616c6c6f77616e63652062656c6f77604082015264207a65726f60d81b606082015260800190565b6020808252602f908201527f416363657373436f6e74726f6c3a2063616e206f6e6c792072656e6f756e636560408201526e103937b632b9903337b91039b2b63360891b606082015260800190565b6020808252601f908201527f45524332303a206d696e7420746f20746865207a65726f206164647265737300604082015260600190565b6020808252602a908201527f45524332305061757361626c653a20746f6b656e207472616e736665722077686040820152691a5b19481c185d5cd95960b21b606082015260800190565b60ff91909116815260200190565b600082198211156123ea576123ea6124a3565b500190565b6000816000190483118215151615612409576124096124a3565b500290565b600082821015612420576124206124a3565b500390565b60005b83811015612440578181015183820152602001612428565b838111156108735750506000910152565b600081612460576124606124a3565b506000190190565b60028104600182168061247c57607f821691505b6020821081141561249d57634e487b7160e01b600052602260045260246000fd5b50919050565b634e487b7160e01b600052601160045260246000fdfe45524332305072657365744d696e7465725061757365723a206d7573742068619f2df0fed2c77648de5860a4cc508cd0818c85b8b8a1ab4ceeef8d981c8956a6a26469706673582212208bdb71a7873cb38a0ee053618405683d80d2cdefd5b34bc4fdd58c476eab3d7d64736f6c63430008000033",
  "linkReferences": {},
  "deployedLinkReferences": {}
}